:020000040800F2
:1000000000000220391C000861070008630700088F
:10001000650700086707000869070008000000007E
:100020000000000000000000000000006B07000856
:100030006D070008000000006F0700087107000846
:10004000891C0008891C0008891C0008891C0008FC
:10005000891C0008891C0008891C0008891C0008EC
:10006000891C0008891C0008891C0008891C0008DC
:10007000891C0008891C0008891C0008891C0008CC
:10008000891C0008891C0008891C0008891C0008BC
:1000900079070008891C0008891C0008891C0008D1
:1000A000891C0008891C0008891C0008891C00089C
:1000B000891C0008891C0008891C0008891C00088C
:1000C000891C0008891C0008891C0008891C00087C
:1000D000891C000889070008891C0008891C000881
:1000E000891C0008891C0008891C0008891C00085C
:1000F000891C0008891C0008891C0008891C00084C
:10010000891C0008891C0008891C0008891C00083B
:10011000891C0008891C0008891C0008891C00082B
:10012000891C0008891C0008891C0008891C00081B
:10013000891C0008891C0008891C0008891C00080B
:10014000891C0008891C0008891C0008891C0008FB
:10015000891C0008891C0008891C0008891C0008EB
:10016000891C0008891C0008891C0008891C0008DB
:10017000891C0008891C0008891C00080000000078
:08018000891C0008891C00081D
:1001880010B5054C237833B9044B13B10448AFF3C9
:1001980000800123237010BD0C0000200000000027
:1001A800E41C000808B5034B1BB103490348AFF32F
:1001B800008008BD0000000010000020E41C0008BA
:1001C80053B94AB9002908BF00281CBF4FF0FF31B6
:1001D8004FF0FF3000F088B9ADF1080C6DE904CE9E
:1001E80000F006F8DDF804E0DDE9022304B070470A
:1001F8002DE9F047089D0F4604468C46002B48D150
:100208008A42164661D9B2FA82F34BB1C3F1200291
:1002180001FA03FC20FA02F29E4042EA0C0C9C40D0
:100228004FEA164EB7B2BCFBFEF1220C0EFB11CC06
:1002380042EA0C4201FB07F0904209D9B21801F1D9
:10024800FF3C80F0EE80904240F2EB80023932446D
:10025800121AA4B2B2FBFEF00EFB102244EA0244CA
:1002680000FB07F7A74209D9341900F1FF3280F0E3
:10027800DA80A74240F2D7803444023840EA01408D
:10028800E41B00211DB1DC400023C5E90043BDE8A3
:10029800F0878B4206D90DB1C5E900010021084657
:1002A800BDE8F087B3FA83F1002948D1BB4202D3F5
:1002B800824200F20781841A67EB03020120944608
:1002C800002DE4D0C5E9004CE1E7002A00F0928057
:1002D800B2FA82F3002B40F0A8808A1A4FEA164E31
:1002E8001FFA86FC0121200CB2FBFEF70EFB172239
:1002F80040EA02420CFB07F0904207D9B21807F116
:10030800FF3802D2904200F2E2804746121AA4B2A5
:10031800B2FBFEF00EFB102244EA02440CFB00FC88
:10032800A44507D9341900F1FF3202D2A44500F2DE
:10033800CB801046A4EB0C0440EA0740A2E7C1F1C9
:1003480020068B4022FA06FC4CEA030C07FA01F45B
:1003580020FA06F3F7404FEA1C49234300FA01F854
:100368001FFA8CFEB7FBF9F01C0C09FB107744EA66
:10037800074400FB0EF7A74202FA01F20AD91CEB68
:10038800040400F1FF3A80F09B80A74240F2988075
:1003980002386444E41B9FB2B4FBF9F309FB13442D
:1003A80047EA044403FB0EFEA64509D91CEB0404E6
:1003B80003F1FF3780F08280A6457FD9023B644471
:1003C80043EA0040A4EB0E04A0FB02E7BC427346DC
:1003D800B94663D360D05DB1B8EB030264EB09049E
:1003E80004FA06F622FA01F31E43CC40C5E900647C
:1003F80000214CE76208480842EAC1710B0C43EA45
:1004080000438AB242EA0342B3FBF6F1E407B4467A
:100418003746B6461F23B0FBF6F0D21B41EA00412F
:1004280061E7614614E7104628E7C3F1200120FA86
:1004380001F29E4027FA01F19F403A434FEA164ED7
:100448001FFA86FCB1FBFEF70EFB1710110C41EAF0
:10045800004107FB0CF8884504FA03F43AD97118EF
:1004680007F1FF3001D288451FD8A1EB0801B1FB85
:10047800FEF808FB0CF70EFB181192B242EA014293
:10048800BA422FD2B21808F1FF31C6D2BA42C4D24A
:10049800A8F102013244C0E7F0459CD2BEEB02034A
:1004A80067EB0C070138B94695E7A6EB0808414405
:1004B800B81EB1FBFEF808FB0CF7DCE73B467FE70C
:1004C800504667E70846FBE63444023832E7023F05
:1004D80032441BE7A1EB08013846B1FBFEF808FBE4
:1004E8000CF7C8E7414698E7704700BF72B6FEE7C9
:1004F80010B594B008AC30220021204601F0C1FBB1
:1005080000230393049305930693079301931E4ACC
:10051800116C41F080511164126C02F0805201920A
:10052800019A0293194B1A6842F480421A601B68B8
:1005380003F480430293029B012308934FF4803312
:10054800099302220E924FF480030F930423109311
:100558005421119112921393204600F011FB78B99F
:100568000F23039302210491002305934FF4805233
:100578000692079303A800F06DFD18B914B010BDDA
:10058800FFF7B4FFFFF7B2FF0038024000700040E9
:1005980008B501F027F8FFF7ABFF00F005F800F009
:1005A8001FF800F07FF8FEE782B0002100910B4BA6
:1005B8001A6B42F080021A631A6B02F080020092F2
:1005C800009A01911A6B42F001021A631B6B03F047
:1005D80001030193019B02B0704700BF003802403D
:1005E80008B50E480E4B0360062343600023836062
:1005F800C3604FF4102202614FF400124261037687
:10060800012242768376C2760377437700F0DCF8DE
:1006180000B908BDFFF76AFFFBE700BF280000200C
:100628000064004010B588B0002303930493059339
:10063800069307930268194B9A4201D008B010BD7F
:100648000024019403F5EA331A6C42F000721A642C
:100658001A6C02F000720192019A02941A6B42F02D
:1006680001021A631B6B03F001030293029B4FF410
:10067800C053039302230493032306930923079388
:1006880003A9074800F0BCFD22462146142000F0CB
:100698005BFF142000F068FFD0E700BF0064004053
:1006A8000000024008B50A480A4B03604FF4E133E2
:1006B800436000238360C36003610C22426183614D
:1006C800C36101F0A1F800B908BDFFF70FFFFBE710
:1006D800500000200010014010B588B0002303939B
:1006E8000493059306930793026803F1804303F587
:1006F80088339A4201D008B010BD0024019403F554
:1007080094335A6C42F010025A645A6C02F0100288
:100718000192019A02941A6B42F001021A631B6B50
:1007280003F001030293029B4FF4C0630393022377
:100738000493032306930723079303A9054800F0AE
:100748005FFD22462146252000F0FEFE252000F010
:100758000BFFD0E700000240FEE7FEE7FEE7FEE7FA
:10076800FEE770477047704708B500F055FF08BDB1
:1007780008B5024800F0DBF808BD00BF28000020DB
:1007880008B5024801F0FAF808BD00BF5000002083
:1007980082B0002100910B4B5A6C42F480425A649B
:1007A8005A6C02F480420092009A01911A6C42F04D
:1007B80080521A641B6C03F080530193019B02B0B2
:1007C800704700BF00380240002800F0A18038B50B
:1007D800044690F82030D3B12268136843F001032F
:1007E800136000F025FF054623685A6812F0010FD0
:1007F80010D100F01DFF401B0A28F5D9636A43F4A5
:1008080000336362052384F82030012038BDFFF7E8
:1008180009FFE1E71A6822F002021A6000F008FFF7
:10082800054623685A6812F0020F0DD000F000FF49
:10083800401B0A28F5D9636A43F400336362052331
:1008480084F820300120E1E7227E012A3DD01A6891
:1008580022F080021A60637E012B3BD02268136865
:1008680023F040031360A37E012B39D0226813685C
:1008780023F020031360E37E012B37D0226813682E
:1008880043F010031360237F012B35D022681368CF
:1008980023F008031360637F012B33D022681368A9
:1008A80023F004031360A368E26813432269134327
:1008B800626913436268013A21681343CB610020DF
:1008C8006062012384F82030A0E71A6842F08002B1
:1008D8001A60C0E72268136843F040031360C2E758
:1008E8002268136843F020031360C4E72268136882
:1008F80023F010031360C6E72268136843F0080367
:100908001360C8E72268136843F004031360CAE75A
:1009180001207047704770477047704770477047AD
:1009280070477047704770477047704770472DE9A8
:10093800F84F054603685C69D3F804809F68D3F8CC
:100948000CA0D3F81090D3F818B014F001063BD0DF
:1009580017F0010616D001229A6017F0020F08D18D
:1009680017F0040F0CD117F0080606D04FF4805684
:1009780008E0FFF7CFFF002604E0FFF7CEFF01E015
:100988004FF4006617F4807F0DD02B684FF4807207
:100998009A6017F4007F40F0968017F4806F00F09B
:1009A800968046F4005617F4803F0DD02B684FF41C
:1009B80080329A6017F4003F40F0938017F4802F3C
:1009C80000F0938046F4004614F0080F07D01AF0A0
:1009D800100F04D046F400762B681022DA6014F069
:1009E800040F03D01AF0080F40F0898014F0020FAA
:1009F80005D02B68DB6813F0030F40F0878014F0F4
:100A0800400F07D019F0100F04D046F480662B6809
:100A180010221A6114F0200F02D019F0080F79D1B2
:100A280014F0100F04D02B681B6913F0030F78D152
:100A380014F4003F02D018F0100F76D114F4803F60
:100A480002D018F0080F77D114F4004F37D018F0FF
:100A5800040F31D014F4807F04D01BF0010F01D0B3
:100A680046F0010614F4007F04D01BF0020F01D0F9
:100A780046F0020614F4806F04D01BF0040F01D076
:100A880046F0040614F4006F16D01BF0700B13D058
:100A9800BBF1400F66D056D8BBF1200F5CD0BBF13C
:100AA800300F5CD0BBF1100F01D146F008062A6860
:100AB800936923F0700393612B6804225A60002E17
:100AC80056D1BDE8F88F2846FFF725FF6BE717F4E6
:100AD800006F02D046F4804665E72846FFF71EFF00
:100AE80061E72846FFF718FF6EE717F4002F02D0DA
:100AF80046F4803668E72846FFF711FF64E72B685D
:100B08000822DA602846FFF70CFF6FE72846FFF750
:100B180007FF74E72B6808221A612846FFF703FFCE
:100B28007EE72846FFF7FEFE82E72B6810225A6010
:100B38002846FFF7F9FE81E72B6808225A60284605
:100B4800FFF7F3FE80E7BBF1500F0ED0BBF1600F4B
:100B5800ADD146F48076AAE746F01006A7E746F03E
:100B68002006A4E746F04006A1E746F080069EE787
:100B78006B6A33436B622846FFF7D8FEA1E7000093
:100B8800002800F0E08170B582B00446036813F0D5
:100B9800010F3BD09F4B9B6803F00C03042B2CD018
:100BA8009C4B9B6803F00C03082B21D06368B3F5BA
:100BB800803F4FD0B3F5A02F52D0964B1A6822F43D
:100BC80080321A601A6822F480221A606368002B47
:100BD80050D000F02DFD05468E4B1B6813F4003FE6
:100BE80014D100F025FD401B6428F5D90320B1E19C
:100BF800884B5B6813F4800FD8D0864B1B6813F4BE
:100C0800003F03D06368002B00F09F81236813F036
:100C1800020F54D07F4B9B6813F00C0F3ED07D4BD6
:100C28009B6803F00C03082B33D0E368002B68D0D3
:100C3800794B01221A6000F0FBFC0546754B1B68D6
:100C480013F0020F54D100F0F3FC401B0228F5D931
:100C580003207FE16F4A136843F480331360B5E7DC
:100C68006C4B1A6842F480221A601A6842F4803287
:100C78001A60ABE700F0DCFC0546664B1B6813F412
:100C8800003FC3D000F0D4FC401B6428F5D90320F2
:100C980060E1604B5B6813F4800FC6D15D4B1B6845
:100CA80013F0020F03D0E368012B40F05081594A3A
:100CB800136823F0F803216943EAC103136023682A
:100CC80013F0080F42D063696BB3534B0122C3F88A
:100CD800802E00F0ADFC05464E4B5B6F13F0020F03
:100CE80034D100F0A5FC401B0228F5D9032031E1DE
:100CF800484A136823F0F803216943EAC1031360E3
:100D0800DDE7454B00221A6000F092FC0546414B96
:100D18001B6813F0020FD2D000F08AFC401B022897
:100D2800F5D9032016E13C4B0022C3F8802E00F0D1
:100D38007FFC0546374B5B6F13F0020F06D000F0BF
:100D480077FC401B0228F5D9032003E1236813F040
:100D5800040F77D02F4B1B6C13F0805F33D1002327
:100D680001932C4B1A6C42F080521A641B6C03F0EE
:100D780080530193019B0125284B1B6813F4807F46
:100D880023D0A368012B34D0052B38D0214B1A6F00
:100D980022F001021A671A6F22F004021A67A36888
:100DA800002B3DD000F044FC06461A4B1B6F13F095
:100DB800020F46D100F03CFC801B41F28833984278
:100DC800F3D90320C6E00025D6E7144A136843F494
:100DD8008073136000F02CFC0646104B1B6813F45C
:100DE800807FCED100F024FC801B0228F5D9032097
:100DF800B0E0084A136F43F001031367CFE7054BD0
:100E08001A6F42F004021A671A6F42F001021A6759
:100E1800C5E700BF003802400000474200700040AC
:100E280000F006FC0646524B1B6F13F0020F08D069
:100E380000F0FEFB801B41F288339842F3D903206F
:100E480088E0EDB9A369002B00F08380484A9268D6
:100E580002F00C02082A51D0022B17D0454B002271
:100E68001A6600F0E5FB0446414B1B6813F0007F4F
:100E780042D000F0DDFB001B0228F5D9032069E011
:100E88003B4A136C23F080531364DBE7394B002291
:100E98001A6600F0CDFB0546354B1B6813F0007F42
:100EA80006D000F0C5FB401B0228F5D9032051E00D
:100EB800E369226A1343626A43EA8213A26A520808
:100EC800013A43EA0243E26A43EA0263284A53606A
:100ED800284B01221A6600F0ABFB0446244B1B6822
:100EE80013F0007F06D100F0A3FB001B0228F5D900
:100EF80003202FE000202DE000202BE0012B2BD039
:100F08001B4B5B6803F48001E269914226D103F030
:100F18003F02216A8A4223D1616A47F6C0721A40A9
:100F2800B2EB811F1ED103F44031A26A5208013A84
:100F3800B1EB024F18D103F07063E26AB3EB026FB2
:100F480014D1002006E001207047012002E00120B2
:100F580000E0002002B070BD0120FBE70120F9E7A6
:100F68000120F7E70120F5E70120F3E70120F1E789
:100F7800003802400000474208B5334B9B6803F035
:100F88000C03042B5BD0082B5BD12F4B5A6802F063
:100F98003F025B6813F4800F2CD02B4B5868C0F3CA
:100FA80088104FEA401CBCEB000C6EEB0E0E4FEAAB
:100FB8008E1343EA9C634FEA8C11B1EB0C0163EB8F
:100FC8000E03DB0043EA5173C90011EB000C43F137
:100FD8000003590200234FEA4C2041EADC51FFF795
:100FE800EFF8194B5B68C3F3014301335B00B0FBB7
:100FF800F3F008BD144B5868C0F388104FEA401C42
:10100800BCEB000C6EEB0E0E4FEA8E1343EA9C63AA
:101018004FEA8C11B1EB0C0163EB0E03DB0043EAE2
:101028005173C90011EB000C43F10003990200232E
:101038004FEA8C2041EA9C51FFF7C2F8D1E70348F8
:10104800D7E70348D5E700BF0038024000127A000E
:101058000024F400002800F09B8070B50D4604467B
:101068004F4B1B6803F007038B4208D2CBB24C4AA4
:101078001370136803F007038B4240F08B802368DA
:1010880013F0020F17D013F0040F04D0454A9368E9
:1010980043F4E0539360236813F0080F04D0414AE7
:1010A800936843F4604393603E4A936823F0F003E7
:1010B800A1680B439360236813F0010F32D0636873
:1010C800012B21D09A1E012A25D9364A126812F01E
:1010D800020F61D033498A6822F0030213438B6000
:1010E80000F0A6FA06462F4B9B6803F00C036268D3
:1010F800B3EB820F16D000F09BFA801B41F28833C5
:101108009842F0D9032042E0264A126812F4003FC0
:10111800E0D101203BE0234A126812F0007FD9D1C8
:10112800012034E01E4B1B6803F00703AB4207D9CC
:10113800EAB21B4B1A701B6803F00703AB422DD1B0
:10114800236813F0040F06D0164A936823F4E0537B
:10115800E1680B439360236813F0080F07D0114A26
:10116800936823F46043216943EAC1039360FFF75E
:1011780003FF0C4B9B68C3F303130B4AD35CD840A3
:101188000A4B18600A4B186800F006FA002070BD78
:10119800012070470120FAE70120F8E70120F6E76F
:1011A800003C024000380240041D000808000020EE
:1011B80004000020014B1868704700BF0800002099
:1011C80008B5FFF7F7FF044B9B68C3F38223034A74
:1011D800D35CD84008BD00BF00380240FC1C0008A2
:1011E80008B5FFF7E7FF044B9B68C3F34233034A94
:1011F800D35CD84008BD00BF00380240FC1C000882
:1012080000230F2B00F2E98070B582B065E0856895
:101218004FEA430E032404FA0EF425EA0405CC68C9
:1012280004FA0EF42C438460446824EA02044A68F1
:10123800C2F300129A40224342605CE0DC080834A2
:1012480050F8242003F00705AD004FF00F0E0EFAFA
:1012580005FE22EA0E0E0A69AA4042EA0E0240F88A
:1012680024205CE0072200E0002202FA0EF22A4362
:1012780002345A4D45F82420594A94686FEA0C0202
:1012880024EA0C054E6816F4801F01D04CEA0405C8
:10129800534CA560E46802EA04054E6816F4001F82
:1012A80001D04CEA04054E4CE560646802EA040586
:1012B8004E6816F4003F01D04CEA0405484C6560BE
:1012C800246822404D6815F4803F01D04CEA04029E
:1012D800434C226001330F2B7DD801229A400C68C1
:1012E80004EA020C32EA0404F4D14C6804F0030462
:1012F800013C012C8BD94A6802F00302032A09D069
:10130800C4685D000322AA4024EA02048A68AA404D
:101318002243C2604A6802F00302022A8ED004689F
:101328004FEA430E032202FA0EF224EA02044A6844
:1013380002F0030202FA0EF2224302604A6812F433
:10134800403FC7D000220192264A546C44F480449E
:101358005464526C02F480420192019A9C08A51CC4
:101368001E4A52F8255003F0030E4FEA8E0E0F2244
:1013780002FA0EF225EA02051B4A90423FF474AFC6
:1013880002F5806290421AD002F58062904218D02D
:1013980002F58062904216D002F58062904214D025
:1013A80002F58062904212D002F58062904210D01D
:1013B80002F5806290423FF455AF082255E70122BA
:1013C80053E7022251E703224FE704224DE70522A3
:1013D8004BE7062249E702B070BD7047003801406C
:1013E800003C0140003802400000024070B504464D
:1013F800866D00F01DF994F83530022B06D0802355
:101408006365002384F83430012070BD05462268E6
:10141800136823F0160313602268536923F08003CE
:101428005361236CE3B12268136823F00803136047
:101438002268136823F00103136023681B6813F004
:10144800010F11D000F0F4F8431B052BF5D9202328
:101458006365032084F83500002384F83430D4E72A
:10146800A36C002BDFD1E3E7E26D3F239340B36029
:10147800012384F83530002084F83400C5E790F85B
:101488003530022B03D080234365012070470523A4
:1014980080F835300268136823F0010313600020D8
:1014A80070470000002807DB00F01F0240090123F5
:1014B8009340024A42F82030704700BF00E100E044
:1014C800002808DB0901C9B200F1604000F561405D
:1014D80080F80013704700F00F000901C9B2014BF2
:1014E8001954704714ED00E000B500F00700C0F192
:1014F800070CBCF1040F28BF4FF0040C031D062B8A
:101508000ED9C31E4FF0FF3E0EFA0CF021EA00017F
:1015180099400EFA03FE22EA0E0241EA020000BDDB
:101528000023EFE7074AD36823F4E0631B041B0C8E
:10153800000200F4E060034343F0BF6343F4003368
:10154800D360704700ED00E010B50446054BD8683D
:10155800C0F30220FFF7C8FF01462046FFF7B0FF9F
:1015680010BD00BF00ED00E008B5FFF79BFF08BD08
:101578000138B0F1807F0BD24FF0E0235861054A63
:10158800F02182F823100020986107221A61704721
:101598000120704700ED00E010B504460E4B1868B6
:1015A8000E4B1A784FF47A73B3FBF2F3B0FBF3F0F7
:1015B800FFF7DEFF68B90F2C01D901200AE00022ED
:1015C80021464FF0FF30FFF7BFFF054B1C6000209E
:1015D80000E0012010BD00BF08000020000000202E
:1015E8000400002008B50B4B1A6842F400721A6018
:1015F8001A6842F480621A601A6842F480721A60AB
:101608000320FFF78FFF0F20FFF7C6FFFFF7C0F893
:10161800002008BD003C0240034A1168034B1B78B8
:101628000B441360704700BF9800002000000020A2
:10163800014B1868704700BF98000020026802F14B
:101648000C0353E8003F23F490730C3242E8003156
:101658000029F3D1026802F1140353E8003F23F094
:101668000103143242E800310029F3D1036B012B46
:1016780005D0202380F842300023036370470268B6
:1016880002F10C0353E8003F23F010030C3242E848
:1016980000310029F3D1ECE790F84130212B01D03B
:1016A800022070478368B3F5805F17D0036A5A1C1D
:1016B80002621A7803685A60C38C9BB2013B9BB2E2
:1016C800C3844BB90268D36823F08003D3600268EF
:1016D800D36843F04003D360002070470369002BB0
:1016E800E4D1036A1B880268C3F308035360036AE2
:1016F80002330362E0E7000010B50446026813698C
:1017080023F44053C1680B431361836802691A4389
:1017180043691A43C3691A430168CB6823F4164323
:1017280023F00C031343CB600268536923F440731E
:1017380081690B4353610368314A934206D002F52D
:101748008062934202D0FFF73BFD01E0FFF748FDBE
:10175800E369B3F5004F29D00021031849411B184C
:1017680041F10001C90041EA5371DB0018186368B0
:101778004FEA83024FEA937341F10001FEF720FD1F
:10178800204AA2FB00314909642303FB11031B0112
:101798003233A2FB03235B0903F0F00202EB0112D0
:1017A80003F00F03216813448B6010BD0023021857
:1017B80043EB0301121841F10001C90041EA5271DB
:1017C800D200101841F10001626892185B41FEF7DF
:1017D800F7FC0C4AA2FB00314909642303FB1103FF
:1017E800DB003233A2FB03235B095A0002F4F872D0
:1017F80002EB011203F00703216813448B60D4E75E
:10180800001001401F85EB5160B310B5044690F8F5
:10181800413013B3242384F841302268D36823F479
:101828000053D3602046FFF767FF2268136923F44B
:10183800904313612268536923F02A035361226895
:10184800D36843F40053D36000206064202384F8F5
:10185800413084F84230606310BD80F84030FEF7B4
:101868003BFFD7E701207047704708B50168CA6891
:1018780022F04002CA60202280F84120FFF7F4FFDE
:10188800002008BD7047704708B5806B0023C385EA
:10189800FFF7F9FF08BD704790F84230222B68D156
:1018A8008368B3F5805F4ED0826AB3F5805F04D059
:1018B800002B55D10369002B52D103685B68137064
:1018C800836A01338362C38D9BB2013B9BB2C3859C
:1018D800002B50D100B583B00268D36823F02003F1
:1018E800D3600268D36823F48073D36002685369B5
:1018F80023F001035361202380F84230002343631F
:10190800036B012B32D100230363026802F10C033D
:1019180053E8003F23F010030C3242E8003100295D
:10192800F3D103681A6812F0100F06D00022019252
:101938001A6801925B680193019B818DFFF7ABFFE9
:10194800002003B000BD0269002AADD1826A036895
:101958005B68C3F308031380836A02338362B2E7C8
:1019680003685B6803F07F031370A9E7FFF78AFF3A
:10197800E6E70220704700207047000010B582B0EB
:10198800044602681368D068516913F00F0F09D133
:1019980013F0200F0CD010F0200F09D02046FFF7CD
:1019A8007BFF16E011F0010115D110F4907F12D1E0
:1019B800216B012979D013F0800F03D010F0800F2C
:1019C80040F0218113F0400F03D010F0400F40F099
:1019D8001E8102B010BD13F0010F06D010F4807FF5
:1019E80003D0626C42F00102626413F0040F04D069
:1019F80019B1626C42F00202626413F0020F04D063
:101A080019B1626C42F00402626413F0080F07D047
:101A180010F0200F00D119B1626C42F00802626424
:101A2800626C002AD5D013F0200F02D010F0200FDE
:101A380029D123685B6903F04003626C12F0080F38
:101A480000D163B32046FFF7F9FD23685B6913F003
:101A5800400F20D0226802F1140353E8003F23F01E
:101A68004003143242E800310029F3D1E36B73B12B
:101A7800694A1A65E06BFFF702FD0028A9D0E06B00
:101A8800036D9847A5E72046FFF706FFD1E72046F4
:101A9800FFF7F9FE9DE72046FFF7F5FE99E7204698
:101AA800FFF7F1FE0023636493E713F0100F82D071
:101AB80010F0100F3FF47FAF0023019313680193D8
:101AC80053680193019B536913F0400F5FD0E26B99
:101AD80013685B689BB2002B4AD0A18D994247D905
:101AE800E385D369B3F5807F37D0226802F10C0310
:101AF80053E8003F23F480730C3242E80031002998
:101B0800F3D1226802F1140353E8003F23F00103E4
:101B1800143242E800310029F3D1226802F114039B
:101B280053E8003F23F04003143242E80031002913
:101B3800F3D1202384F8423000232363226802F182
:101B48000C0353E8003F23F010030C3242E8003145
:101B58000029F3D1E06BFFF749FC02236363A18DF1
:101B6800E38D9BB2C91A89B22046FFF794FE30E78D
:101B7800A18D99427FF42DAFD369B3F5807F7FF4AF
:101B880028AF022363632046FFF785FE21E7A18D76
:101B9800E38D9BB2C91A89B2E38D9BB2002B3FF447
:101BA80018AF00293FF415AF226802F10C0353E87F
:101BB800003F23F490730C3242E800300028F3D140
:101BC800226802F1140353E8003F23F001031432A2
:101BD80042E800300028F3D1202384F84230002363
:101BE8002363226802F10C0353E8003F23F010033B
:101BF8000C3242E800300028F3D102236363204608
:101C0800FFF749FEE5E62046FFF746FDE1E62046F8
:101C1800FFF72BFEDDE600BF91180008034AD2F853
:101C2800883043F47003C2F88830704700ED00E054
:101C3800DFF834D0FFF7F2FF0C480D490D4A0023B6
:101C480002E0D458C4500433C4188C42F9D30A4A69
:101C58000A4C002301E013600432A242FBD300F0D7
:101C680019F8FEF795FC70470000022000000020DC
:101C78000C000020241D00080C0000209C000020FF
:101C8800FEE702440346934200D1704703F8011B64
:101C9800F9E7000070B50D4B0D4D5B1B9C1000263D
:101CA800A64209D100F01AF80A4D0B4B5B1B9C1099
:101CB8000026A64205D170BD55F8043B9847013669
:101CC800EEE755F8043B98470136F2E71C1D00087B
:101CD8001C1D00081C1D0008201D0008F8B500BFC9
:101CE800F8BC08BC9E467047F8B500BFF8BC08BCF5
:041CF8009E4670474D
:101CFC0000000000010203040000000000000000CE
:081D0C000102030406070809A7
:081D1400E4E4FF7F0100000080
:041D1C00AD0100080D
:041D2000890100082D
:0C1D240001000000100000000024F4008A
:0400000508001C399A
:00000001FF
